:020000040800F2
:1000000020070020290200080B180008E516000848
:1000100009180008E1050008B518000800000000F4
:100020000000000000000000000000000F180008A1
:1000300095060008000000000D18000811180008BF
:10004000430200084302000843020008430200087C
:10005000430200084302000843020008430200086C
:10006000430200084302000843020008430200085C
:10007000430200084302000843020008430200084C
:100080004302000843020008AD04000843020008D0
:10009000430200084302000843020008430200082C
:1000A000430200084302000843020008430200081C
:1000B000430200084302000843020008430200080C
:1000C00043020008430200084302000843020008FC
:1000D00043020008430200084302000843020008EC
:1000E00043020008430200084302000843020008DC
:1000F00043020008430200084302000843020008CC
:1001000043020008430200084302000843020008BB
:1001100043020008430200084302000843020008AB
:10012000E5050008430200084302000843020008F6
:100130004302000800000000000000004302000825
:10014000430200084302000843020008430200087B
:10015000430200084302000843020008430200086B
:10016000430200084302000843020008430200085B
:1001700043020008430200080000000000000000E5
:10018000430200084302000800F002F800F03CF8C7
:100190000AA090E8000C82448344AAF10107DA45E2
:1001A00001D100F031F8AFF2090EBAE80F0013F0F8
:1001B000010F18BFFB1A43F0010318478017000016
:1001C000A0170000103A24BF78C878C1FAD85207A7
:1001D00024BF30C830C144BF04680C6070470000C1
:1001E0000023002400250026103A28BF78C1FBD840
:1001F000520728BF30C148BF0B6070471FB501F0E0
:100200008BFB1FBD10B510BD00F0CFF81146FFF7F6
:10021000F5FF01F061FB00F0EDF803B4FFF7F2FF2A
:1002200003BC00F0F5F80000094880470948004782
:10023000FEE7FEE7FEE7FEE7FEE7FEE7FEE7FEE796
:10024000FEE7FEE704480549054A064B70470000F3
:10025000A5180008890100082001002020070020BF
:10026000200300202003002053EA020C00F06980E4
:100270002DE9F04B4FF00006002B1FBFB3FA83F5BA
:1002800003FA05F424FA05F65E4012BF1643B2FAEB
:1002900082F502FA05F4C5F120051EBF22FA05FC1D
:1002A00044EA0C04203556EA044C4FEA144418BFC3
:1002B000641C4FF000084FF00009904271EB030CF2
:1002C00039D3002919BFB1FA81F701FA07F6B0FA5C
:1002D00080F700FA07F6C7F120071EBF20FA07FCD7
:1002E00046EA0C062037B6FBF4FCA7EB0507103FE7
:1002F00007F01F0BCBF120060CFA0BFB2CFA06F6CD
:1003000044BFB3460026202FA4BF5E464FF0000B2B
:100310005BEA060C08BF4FF0010B19EB0B09ABFBB6
:10032000027C48EB0608C01B06FB02CC0BFB03CC8F
:1003300071EB0C01C1E70B46024641464846BDE859
:10034000F08B13B54FF000004FF00001AFF30080C9
:10035000BDE81C4070474FF0000200B513469446BC
:100360009646203922BFA0E80C50A0E80C50B1F10D
:100370002001BFF4F7AF090728BFA0E80C5048BF21
:100380000CC05DF804EB890028BF40F8042B08BFBF
:10039000704748BF20F8022B11F0804F18BF00F8BB
:1003A000012B7047704770477047754600F02CF876
:1003B000AE4605006946534620F00700854618B052
:1003C00020B5FFF73FFFBDE820404FF000064FF09B
:1003D00000074FF000084FF0000B21F00701AC467A
:1003E000ACE8C009ACE8C009ACE8C009ACE8C00999
:1003F0008D46704710B50446AFF300802046BDE837
:100400001040FFF70ABF000000487047BC00002002
:1004100001491820ABBEFEE726000200704710B568
:100420000146806B026C12F0500F05D0026CD206B0
:1004300026D500F0E6F910BD016C41F400710164AD
:1004400001688A6812F0405F17D1027EAAB9CA6AB1
:1004500012F4700F02D08A6852050ED44A6822F056
:1004600020024A60016C21F480710164016CC904AE
:1004700003D4016C41F00101016400F0B5F910BD35
:10048000806BC26CBDE810400846104710B5806B09
:1004900040210164416C41F00401416400F0B1F974
:1004A00010BD10B5806B00F0ABF910BD014800F035
:1004B000A9B9000014000020464910B54A6822F48A
:1004C00040324A604A6843681A434A6001684A6891
:1004D00022F480724A6001684A68036942EA032292
:1004E0004A6001684A6822F040724A6001684A68BE
:1004F00083681A434A6001688A6822F400628A604D
:1005000001688A68C3681A438A60816A6FF0706202
:10051000D14201688A6822F070628A6001688A6844
:100520000CD0836A1A438A6001688A6822F04052BC
:100530008A6001688A68C36A1A4301E022F0405267
:100540008A6001688A6822F002028A6001688A680B
:10055000037E42EA43028A6090F820100029016875
:100560004A680FD042F400624A6001684A6822F487
:1005700060424A6001684A68174C436A04EB43339F
:100580001A4301E022F400624A600168CA6A22F458
:100590007002CA620168CA6A838B104C04EB035371
:1005A0001A43CA6201688A6822F400728A6001688C
:1005B0008A6890F8303042EA43228A6001688A688B
:1005C00022F480628A6001688A68406942EA802079
:1005D000886010BD0023014000E0FFFF0000F0FF35
:1005E000FEE70000014800F0CDBA00005C000020EA
:1005F00001681823CAB2103AB2FBF3F2054B6FF34D
:100600000901032A9B5CC36500D9091D8165084661
:10061000704700002219000810B5014600208B69C0
:100620008A6A4FF0C07453B1B3F5005F15D072B150
:10063000012A0CD0022A0AD0032A09D104E01AB1F7
:10064000012A06D0022A03D1C96AC90100D50120B6
:1006500010BDC96AA142FAD010BD002AF7D0012A04
:10066000F2D0022AF3D0032AF3D010BD30B50468CB
:10067000256825F480252560046863608368402B25
:10068000036803D099600068C26030BD9A6000685A
:10069000C16030BD704772B6FEE7704778B5002480
:1006A000009490F83C20012A19D0012280F83C20C7
:1006B0000A6807230568092A13D9EE680A3A02EB8B
:1006C000420293409E43EE600B788A680A3B03EB3C
:1006D00043039A400368DD682A43DA6010E0022091
:1006E00078BD2E6902EB420293409E432E610B7847
:1006F0008A6803EB43039A4003681D692A431A6121
:100700004A681F23072A13D205686E6B521E02EB3C
:10071000820293409E436E630B790A885B1E92B2FD
:1007200003EB83039A4003685D6B2A435A6327E017
:1007300005680D2A12D22E6BD21F02EB8202934063
:100740009E432E630B790A88DB1F92B203EB83036F
:100750009A4003681D6B2A431A6311E0EE6A0D3A52
:1007600002EB820293409E43EE620B790A880D3BB6
:1007700092B203EB83039A400368DD6A2A43DA628C
:10078000164B0568144A9D4206D10D68122D03D1FF
:10079000556845F48005556005689D4218D10B6881
:1007A000102B01D0112B13D1536843F40003536075
:1007B000096810290CD10A490A4A0968B1FBF2F10B
:1007C00001EB8101490000E0491E00910029FBD1A5
:1007D00080F83C40002078BD00230140002001400B
:1007E0001000002040420F000349884202D1034913
:1007F0000120087070470000140000200000002055
:100800007047704770B5044600680668456816F082
:10081000020F05F020012AD049B3216CC90603D488
:10082000216C41F400712164816811F0405F17D19F
:10083000217EA9B9C16A11F4700F02D081684905FF
:100840000ED4416821F020014160206C20F48070BA
:100850002064206CC00403D4206C40F001002064AC
:100860002046FFF7C1FF21686FF01200086016F004
:10087000040F05F0800132D089B3206CC00603D488
:10088000206C40F4005020642068816811F4401FFF
:100890001ED1816B11F4401F02D08168490517D425
:1008A0004168490514D4816811F0405F10D1217E60
:1008B00071B9416821F080014160206C20F48050C2
:1008C0002064206CC00503D4206C40F0010020643B
:1008D0002046FFF7E2FE21686FF00C00086016F07A
:1008E000010F05F040010FD071B120680068C0070A
:1008F0000AD0206C40F480302064204600F043F899
:1009000021686FF00100086016F0200F05F080618B
:100910000ED000290CD0606C40F0020060642068AA
:100920006FF0200505602046FFF76BFF206805602B
:1009300070BD70B504004FF0000503D0206C002698
:1009400010B107E0012070BD204600F01DF866647C
:1009500084F83C60206CC00610D4206C20F48850D1
:1009600040F0020020642046FFF7A6FD6664206C7C
:1009700020F0020040F00100206400E0012584F82E
:100980003C60284670BD704770B586B0064614219D
:100990006846FFF7E0FC2149306888423CD1204896
:1009A0000025016841F480710160006800F48070E6
:1009B00005901B481438016841F00101016000688E
:1009C000694600F0010005900F2000900320CDE95A
:1009D0000105144800F05AFA144C1348C4E9000504
:1009E0000015A560C4E90350800060618000A0612B
:1009F0008011C4E907052046656200F093F908B14B
:100A0000FFF749FEB463002211461220A66300F0EE
:100A1000A3FB122000F092FB06B070BD0020014045
:100A20004438024000000240106402405C00002094
:100A3000F8B5044600200E46009094F83C100129B9
:100A400007D0012184F83C1021688B68DB0702D0B5
:100A500011E00220F8BD8B6843F001038B60404930
:100A6000404B0968B1FBF3F101EB410100E0491E85
:100A700000910029FBD121688B68DB0503D58B68C9
:100A800023F480738B6021688B68DB075DD0236C57
:100A900040F20165AB4343F4807323644968490520
:100AA00005D5216C21F4005141F480512164216C61
:100AB000C90404D5616C21F00601616400E0606442
:100AC00084F83C00A16B2948274DC863A16B2848D6
:100AD0000864A16B2748C86421686FF02200086091
:100AE0002068416841F0806141602068816841F47C
:100AF000807181602168134632464C31A06B00F052
:100B00007BF968681C49C006206806D0884224D159
:100B1000816811F0405F13D01FE08842F8D0174A77
:100B2000904203D1D1F80423D206F1D0144A904266
:100B300013D1D1F8041301F01F011029E8D30CE000
:100B4000816841F08041816007E0206C40F0100036
:100B50002064606C40F0010060640020F8BD00007B
:100B60001000002040420F00002301401F04000835
:100B7000A30400088D04000800200140002101406A
:100B8000002201402DE9F84304464FF00009CDF85A
:100B9000009063484FF41651A56D0068B0FBF1F763
:100BA0002E6894F85C10082000FA01F131420FD051
:100BB00021680A6852070BD50A6822F004020A600D
:100BC00094F85C108840A860606D40F0010060659A
:100BD00094F85C104FF0010808FA01F0304208D098
:100BE00021684969090604D5A860606D40F00200DB
:100BF000606594F85C1004208840304208D0216879
:100C00000968890704D5A860606D40F0040060653C
:100C100094F85C1010208840304218D02168096890
:100C2000090714D5A86020680168490304D5006845
:100C3000000308D5A16C07E00168C90503D4016869
:100C400021F008010160216C09B12046884794F821
:100C50005C1020208840304231D021680968C906E4
:100C60002DD5A86094F8350005282068016806D0C5
:100C7000490347D5006800031DD4616C1CE021F0D6
:100C8000160101602068416921F080014161206CFA
:100C900008B9A06C20B12068016821F0080101604A
:100CA00094F85C103F208840A86084F8358084F870
:100CB0003490216D1FE0E16B09B120468847606DDB
:100CC00000282BD0606DC00714D0052084F83500B3
:100CD0002068016821F0010101600098401C00902B
:100CE000B84203D820680068C007F6D184F8358080
:100CF00084F83490E16C002910D001B02046BDE8A2
:100D0000F04308470168C905D5D4016821F01001F6
:100D1000016084F8358084F83490CCE7BDE8F8832E
:100D2000100000202DE9F041044600F0A7F9064626
:100D30005CB1022084F83500002584F83450206826
:100D4000016821F0010101600DE00120BDE8F081A2
:100D500000F094F9801B052805D920206065032048
:100D600084F83500F2E720680068C007F0D12268F7
:100D7000116820480140D4E901031843D4E903363F
:100D80003343184363691843A3691843E36918435D
:100D9000236A18430843616A042903D1D4E90B1379
:100DA00019430843106020684069666A20F0070113
:100DB00030460E43012704280CD1A06A0643E06A9E
:100DC00040B12046FFF728FC20B14020606584F840
:100DD0003570BAE7206846612046FFF709FC94F8B1
:100DE0005C203F2191408160656584F8357000206A
:100DF000ACE700003F8010F02DE9F0410446866D1D
:100E000090F83400002501280DD0012084F834002A
:100E100094F835700020012F07D084F834000225A3
:100E20002846BDE8F0810220FBE7022784F83570F0
:100E300060652046FFF71AFC94F85C103F2088405C
:100E4000B0602068016841F016010160206C20B19B
:100E50002068016841F0080101602068016841F0E4
:100E600001010160DCE7000070B5044600F006F9FE
:100E70000546601C02D004480078044400F0FEF8E7
:100E8000401BA042FAD370BD040000202DE9F84FAA
:100E9000DFF8BCA10022012503264FF00F090AF15B
:100EA000040BAAF1040E00BF0B6805FA02F42340FC
:100EB000A34270D10F7907F00307012F01D0022F51
:100EC00016D187684FEA420806FA08FC27EA0C07A1
:100ED000D1F80CC00CFA08FC4CEA070CC0F808C0AA
:100EE0004768A7430C79C4F3001494403C43446022
:100EF0000C79E443A4070AD0C4684FEA420C06FA0E
:100F00000CF7BC438F6807FA0CF72743C7600C79CE
:100F100004F00304022C12D1D40800EB840CDCF89A
:100F200020405707FF0E09FA07F824EA0804D1F811
:100F3000108008FA07F848EA0408CCF82080046812
:100F40004FEA420C06FA0CF7BC430F7907F003078F
:100F500007FA0CF7274307604C6814F4403F70D041
:100F60003C4C276847F480472760246822F0030739
:100F700004F480440094384C07EB040CDCF8084877
:100F800097074FEA177809FA08F7BC43334FB8427E
:100F900002D1002724E054E0314FB84201D10127AB
:100FA0001EE0304FB84201D1022719E02E4FB8425F
:100FB00001D1032714E02D4FB84201D104270FE0DF
:100FC0002B4FB84201D105270AE02A4FB84201D180
:100FD000062705E0284FB84201D1072700E008277F
:100FE00007FA08F72743CCF80878DAF800405746A4
:100FF000D1F804C09C435FEACC2C00D51C433C6074
:10100000DBF800405F46D1F804C09C435FEA8C2CBB
:1010100000D51C433C60DEF800407746D1F804C0A0
:101020009C435FEA8C3C00D51C433C60084F083F62
:101030003C68D1F804C09C435FEACC3C00D51C431B
:101040003C60521C102AFFF42FAFBDE8F88F00005F
:10105000083C01404438024000300140000002409A
:101060000004024000080240000C02400010024050
:101070000014024000180240001C02400148806831
:101080007047000004000020024881680278114483
:1010900081607047040000200B4810B5016841F4DE
:1010A00000710160016841F480610160016841F4F0
:1010B00080710160032000F06FF80F2000F006F847
:1010C00000F024F8002010BD003C024070B50D4D2A
:1010D00004464FF47A712878B1FBF0F00A490968A8
:1010E000B1FBF0F000F0EAFA48B9102C07D2002268
:1010F0002146501E00F030F800206C6070BD0120C9
:1011000070BD000004000020100000200A4808B54F
:10111000016841F480410160006800F48040009063
:101120000548001F016841F080510160006800F02F
:101130008050009008BD000044380240002809DBC0
:1011400000F01F02012191404009800000F1E020E1
:10115000C0F8001170470000F0B40E4B1B680C463D
:10116000C3F30223C3F10705042D00D90425191D7B
:10117000072901D2002300E0DB1E012606FA05F153
:10118000491E214099409E40761E16403143F0BCD6
:1011900000F091BB0CED00E0064900F00702086882
:1011A0004FF6FF03184040EA0220034A104308604C
:1011B000704700000CED00E00000FA052DE9F04753
:1011C0000E46050065D0DFF81481D8F80000F7B2AC
:1011D00000F00700B04207D288F80070D8F800008D
:1011E00000F00700B04254D128683D4C810712D569
:1011F000400703D5206840F4E050206028780007BD
:1012000003D5206840F4604020602068A96820F081
:10121000F000084320602878C0072DD03049686866
:101220000839012812D0022813D0032811D00968E8
:10123000890700292DDA216821F00301014321608B
:10124000FFF71CFF814641F2883A0EE009688903E6
:10125000EFE709688901ECE7FFF710FFA0EB090150
:10126000514502D90320BDE8F0872068696800F085
:101270000C00B0EB810FEFD1D8F80010404601F020
:101280000701B14207D90770006800F00700B042BB
:1012900001D00120E7E72878400705D52068E968F4
:1012A00020F4E050084320602878000706D5206825
:1012B000296920F4604040EAC100206000F018F87D
:1012C0002168084AC1F30311515CC840064908600F
:1012D00006480068FFF7FAFE0020C4E7003C024021
:1012E000083802402A1900081000002008000020D9
:1012F000154810B5006810F00C02144813D04110C6
:10130000042A0FD0082A0ED10F4C241F226823680C
:1013100002F03F025B0207D52068C0F38810A0FBF3
:10132000010106E0084610BD2168C1F38811A1FB48
:1013300000010023FEF798FF2168C1F30141491C19
:101340004900B0FBF1F010BD083802400024F40061
:101350002DE9F84F04006ED02078DFF84C93C007D9
:10136000A9F104054AD009F104000168C1F3810123
:10137000012908D00068C0F3810002280AD1D9F8F9
:101380000000400206D52868800337D56068002831
:10139000E1D033E06068B0F5803F10D0B0F5A02F09
:1013A000286810D020F480302860286820F480203D
:1013B00028606068A8B1FFF761FE06460DE0286866
:1013C00040F48030F4E740F480202860F7E700BF65
:1013D000FFF754FE801B642873D828688003F7D574
:1013E0000CE0FFF74BFE064605E000BFFFF746FEA8
:1013F000801B6428F0D828688003F7D42078DFF8B1
:10140000AC8280074FF0000A3ED5A748001D016856
:1014100011F00C0F08D00068C0F3810002280BD136
:10142000D9F80000400207D42868800716D5E06884
:10143000012800D112E033E1E068B8B10120C8F81A
:101440000000FFF71BFE064605E000BFFFF716FE93
:10145000801B0228C0D828688007F7D52868216932
:1014600020F0F80040EAC10028600DE0C8F800A0B4
:10147000FFF704FE064604E0FFF700FE801B02288B
:101480001FD828688007F7D42078000722D5864F18
:1014900087486169703771B101210160FFF7EEFD86
:1014A000064604E0FFF7EAFD801B022809D83868E9
:1014B0008007F7D50EE0C0F800A0FFF7DFFD064675
:1014C00005E082E0FFF7DAFD801B02287DD838684E
:1014D0008007F7D42078400768D5DFF8CCB1002723
:1014E0000BF13C0BDBF80000C0000BD4DBF8001064
:1014F00041F08051CBF80010DBF80000012700F02C
:10150000805000906B4E3068C00510D4306840F4B5
:1015100080703060FFF7B2FD009005E0FFF7AEFD90
:101520000099401A022850D83068C005F6D55E4EA2
:10153000A0686C3601280FD00528306810D020F044
:1015400001003060306820F004003060A068B8B15D
:10155000FFF794FD00900FE0306840F00100F4E7E1
:1015600040F004003060F7E7FFF788FD0099411A6A
:1015700041F28830814266D830688007F4D50EE0A9
:10158000FFF77CFD009007E0FFF778FD0099411A16
:1015900041F28830814256D830688007F4D42FB1A8
:1015A000DBF8001021F08051CBF80010A069C8B31F
:1015B0003D49091D0968C1F3810102294AD0022869
:1015C000504607D0C8F8600000E03CE0FFF756FD49
:1015D00004463BE04746C8F86000FFF74FFD06466B
:1015E00005E000BFFFF74AFD801B02282BD82868C2
:1015F0008001F7D4D4E907010843A16A2E4A4908BB
:1016000002EB0141626A41EA8211084394F82C100E
:1016100040EA0161C9F8001001203866FFF72EFD8D
:10162000044606E03EE000BFFFF728FD001B02284D
:1016300009D828688001F7D534E000BFFFF71EFD08
:10164000001B022802D90320BDE8F88F286880011A
:10165000F4D427E00128F7D0D9F80000E26900F4BB
:10166000800191421CD1226A00F03F01914217D1C2
:1016700047F6C071626A0140B1EB821F10D1A26AC5
:101680004FF0FF3300F4403103EB5202B1EB024F55
:1016900006D194F82C1000F07060B0EB016F01D00F
:1016A0000120D1E70020CFE7043802400000474284
:1016B000800E4742007000400000FFFF10B5401E42
:1016C000B0F1807F01D3012010BD4FF0E0246061B4
:1016D0000F21601700F0EFF80020A06107202061C3
:1016E000002010BDFEE700007FB500242A480094CA
:1016F0000194029427490394016001254FF480313D
:101700000561C0E90114057680F820402349C0E94D
:101710000A140526C661C46080F830504461FFF7A2
:1017200008F908B1FEF7B7FF07200094CDE9015092
:1017300069461948FEF7B2FF08B1FEF7ACFF009505
:101740000225CDE9015469461348FEF7A7FF08B109
:10175000FEF7A1FF0320019069460F48FEF79EFFA8
:1017600008B1FEF798FF0420CDE9005069460A4809
:10177000FEF794FF08B1FEF78EFF1120CDE90006B9
:1017800069460548FEF78AFF002801D0FEF783FF6F
:101790007FBD000000200140140000200100000F68
:1017A000094808B5016841F4800101600068002221
:1017B00000F48000009011463820FFF7CDFCBDE812
:1017C00008403820FFF7BABC303802400D4808B551
:1017D000016841F080010160016801F08001009121
:1017E000016841F001010160016801F0010100910F
:1017F000016841F002010160006800F00200009001
:1018000008BD000030380240FEE7FEE77047704731
:10181000FFF73ABC30B593B030216846FEF79BFD28
:1018200014210CA8FEF797FD1C480025016841F023
:1018300080510160006800F08050119018480168E4
:1018400041F4804101600068022400F4804011905E
:1018500001200090000401908001CDE9064008209D
:101860000890A820CDE9090404200B906846FFF7F2
:101870006FFD08B172B6FEE70CA90F2081E83100B8
:101880004FF48050CDE90F0502210CA8FFF796FC1C
:10189000002801D072B6FEE713B030BD40380240D8
:1018A000007000400248016841F470010160704717
:1018B00088ED00E0FEE70907090E002804DB00F1CF
:1018C000E02080F80014704700F00F0000F1E020E5
:1018D00080F8141D70470000E4B0FFF7DDFBFFF750
:1018E00099FFFFF773FFFFF75BFFFFF7FDFE642231
:1018F00069460748FFF79CF8064C00264FF4FA7536
:101900002078012800D126702846FFF7ADFAF7E7C6
:1019100014000020000000204FF04070E1EE100A9B
:1019200070470006101600061016000000000000A8
:101930000000010203040607080900005C19000802
:101940000000002014000000C40100087019000805
:10195000140000200C070000E00100080000000057
:101960000100000010000000000000000024F4004E
:040000050800018965
:00000001FF
